:1000000012C02CC02BC02AC02AC028C027C026C0BE
:1000100025C04FC023C022C021C020C01FC01EC0A9
:100020001DC01CC01BC011241FBECFE5D4E0DEBF25
:10003000CDBF10E0A0E6B0E0ECE5F7E002C005902F
:100040000D92AA36B107D9F720E0AAE6B0E001C0C8
:100050001D92A138B207E1F769D07EC3D1CF1F92BC
:100060000F920FB60F9211248F93EF93FF93F89492
:10007000E8E7F0E082818F5F82838C3371F4128233
:1000800081818F5F81838C3341F4118280818F5F06
:100090008083883111F41092780081E080937B0096
:1000A0007894FF91EF918F910F900FBE0F901F905A
:1000B00018951F920F920FB60F9211248F939F9352
:1000C000F894809170009091710001969093710066
:1000D0008093700080916E0090916F0001969093D4
:1000E0006F0080936E0078949F918F910F900FBE58
:1000F0000F901F90189585E083BF89B7816089BFF5
:1001000012BE089583E08FBD8BE08EBD1BBC1ABC70
:10011000089585E085BD80E489BF88E082BD0895AB
:10012000F894F0DFF6DFE7DF789408958FEF87BB70
:1001300018BA9EE191BB91B391BB12BA84BB15BAB8
:10014000EFDFE8E7F0E01082118212821482F8D12A
:10015000912CC12CC8E7D0E001E06894662462F8D5
:1001600077247A940F2EF4E68F2EF02D6894DD24F8
:10017000D1F8EE24E394F12C13E00F2EF5E03F2E9E
:10018000F02D0F2EF0EDAF2EF2E0BF2EF02D0F2E42
:10019000FBE34F2EF02D0F2EF7E15F2EF02D8B811C
:1001A000813009F09BC0898190916B0091110CC046
:1001B0002881898190E0829E800D911D11242A81E1
:1001C00020FD35C0672D36C0913049F429818A81E0
:1001D00090E0829E800D911D11246D2D2BC09230D8
:1001E00049F42881898190E0829E800D911D11241F
:1001F0006D2D20C0933049F42881898190E0829E42
:10020000800D911D11246D2D15C0943021F48AB5F7
:100210009BB5662D0FC0953019F090E0672D0AC090
:100220008AB59BB52A8120FD04C0672D03C06D2DC2
:1002300001C0662DAED11B8280916A008F5F8093D2
:100240006A0088818C3061F489818E3149F48A8119
:10025000811106C010926A008FB580688FBD12C0F0
:100260008881843161F489818E3149F48A818111D8
:1002700006C010926A0021E0C21219C02CC081E0B1
:10028000C81212C080916A00863069F48AB59BB5A5
:1002900001969BBD8ABDC02E803D924009F4C12CC1
:1002A00010926A001BC0C02E81E0981217C0809186
:1002B0006A00873091F48AB59BB501979BBD8ABDD2
:1002C000892B29F48FB58F778FBD912C01C0902E8B
:1002D00010926A0003C0902E01C0902E809172008F
:1002E0008F5F80937200843619F4C7D11092720028
:1002F00086990DC080916D0081111DC080917000A4
:1003000090917100C397B8F0D0926D0014C08091A5
:10031000700090917100029738F090916D008E2DD1
:10032000992319F080E001C080E080936D00109265
:1003300071001092700080916D008130C1F5809144
:100340006B00811103C000936B002EC0813019F443
:1003500060926B0029C0843019F410926B0024C0A5
:10036000823049F488818F5F8883883109F418824C
:100370000B830C8319C0833049F489818F5F898393
:100380008C3309F419820B830C830EC0853061F421
:100390008AB59BB50A9718F41BBC1ABC05C08AB570
:1003A0009BB50A979BBD8ABD10936D002EC08091AE
:1003B0006D00823051F580916B00811106C0812F54
:1003C00057D1D0926B000B831EC0823031F48CE089
:1003D0004FD110936B000B8316C0833071F480E013
:1003E00047D18C81813021F41A8210926B0002C0B7
:1003F00030926B000B831C8206C0853021F4109272
:100400006B000B831C8210936D0087990DC0809147
:100410006C0081111DC080916E0090916F00C39798
:10042000B8F0D0926C0014C080916E0090916F0073
:10043000029738F090916C008E2D992319F080E08E
:1004400001C080E080936C0010926F0010926E00EB
:1004500080916C00813061F580916B00823051F4A5
:1004600088819FEF980F9883811101C058820B8378
:100470000C831BC0833051F489819FEF980F9983BF
:10048000811101C049820B830C830FC0853069F450
:100490008AB59BB5873C924018F0BBBCAABC05C08E
:1004A0008AB59BB50A969BBD8ABD10936C0077CE2A
:1004B00080916C00823009F072CE80916B008430A4
:1004C000C1F5C11039C08AB59BB5892BB1F4109222
:1004D0006A00FBBCEABC8FB580688FBDC02E29C006
:1004E0008AB59BB5892BB1F08AB59BB5803D92400A
:1004F00088F4BBBCAABCC12C1CC08AB59BB5803D8E
:10050000924041F48FEC92E09BBD8ABD10926A004C
:10051000902E0FC091E099120CC08AB59BB5803D1A
:10052000924038F41BBC1ABC8FB58F778FBDC19831
:10053000912C10936C0033CE81E0C812EBCFD0CF5A
:10054000BC9ABD9AA09AA19AA29AA39AA49AA59A93
:10055000899A8A9A8B9A8C9AC49AC59AA89AA99AC7
:10056000AA9AAB9AAC9AAD9A919A929A939A949AC3
:10057000EDE7F0E010821182128213821092770070
:100580001092760088EE93E090937500809374004B
:1005900008951F93CF93DF93D62F99232CF4919531
:1005A00081959109C1E001C0C0E0AC01E3E0F0E059
:1005B0001FE34115510511F4E33009F59A01ADEC43
:1005C000BCECBED096958795969587959695879520
:1005D0009C01220F331F880F991F880F991F880FC6
:1005E000991F820F931FDA01A81BB90BBB27A05AD2
:1005F000BF4F8C91DF01A358BF4F8C9304C0DF0124
:10060000A358BF4F1C939A01ADECBCEC99D0AC0140
:10061000569547955695479556954795319748F67F
:10062000DD23E9F0D53000F5D150D43088F48D2F9A
:100630004FE3282F30E0F901E358FF4F90819111EB
:1006400004C0F901E358FF4F40838F5F843089F77E
:10065000ED2FF0E0E358FF4F808180688083CC234A
:1006600019F080E480937D00DF91CF911F91089570
:1006700010927700809376000895C49AC59AA89A3C
:10068000A99AAA9AAB9AAC9AAD9A919A929A939A8D
:10069000949A20917300E22FF0E0E358FF4F80819D
:1006A0004091770050E0022E02C0559547950A947C
:1006B000E2F740FD07C091E0022E01C0990F0A94B5
:1006C000EAF701C090E02F5F243018F42093730004
:1006D00002C01092730080FDC49881FDC59882FD10
:1006E000A89883FDA99884FDAA9885FDAB9886FDFE
:1006F000AC9888230CF4AD9890FD919891FD929858
:1007000092FD939893FD9498809176008823B9F098
:1007100020917400309175002150310929F03093F7
:10072000750020937400089528EE33E0309375002F
:100730002093740090917700892780937700089523
:10074000A29FB001B39FC001A39F01D0B29F700DC3
:0C075000811D1124911D0895F894FFCF25
:0A075C003F065B4F666D7D077F6F5F
:00000001FF
